S01B00005B6C77746F6F6C7320342E31332B5D206D6F6E322E61736DFC
S113E0001AFF4F1F8B0F1E10CE04008EE137CE0176
S113E01080C61B1700398EE152CE0000C6151700CA
S113E0202E1700331C008E00001F12CE0400345043
S113E030343034308E019BC6426F805A26FBCC1A92
S113E04003FD01C78EE42DBDE1159D0C7EE182A682
S113E05080A7C05A26F939C603F7FF00C63539F63A
S113E060FF00C50127F9F6FF0139F6FF00C50110CD
S113E0702600025F39C6FF393402B6FF0085022745
S113E080F9F7FF013502393412D7154F9D00C47FCB
S113E090C10810270006C17F102600144D27EDC6C5
S113E0A0089D03C6209D03C6089D03301F4A20DC3B
S113E0B0C10D1027000FC10A10260013F601C6C1B6
S113E0C00D27C9C60AF701C69D0C1F89351239C12F
S113E0D0091027000FC12025B3911527AF9D03E731
S113E0E0804C20A8C620911527A29D03E7804C856B
S113E0F00726F1209734161F984D10270007E68055
S113E1009D034A26F93516393404C60D9D03C60A03
S113E1109D033504393414E6809D093514390C1DEA
S113E1201026000A0C1C102600040C1B3B123BD3C7
S113E1301C10931C26FB397EE12E7EE12E7EE11E0F
S113E1407EE12D7EE1737EE12E7EF3307E01957EAD
S113E150F5887EE05F7EE0787EE0877EE0F57EE114
S113E160087EE06A7EE12F3410347FBE019BAF6AE3
S113E170160007EC6A830001ED6A1C00BDE824BDAB
S113E180E77110FF01C9C62E9D038E0100C6809D54
S113E190065D27EE3A6F848E0100E680C4DFC0413D
S113E1A01025003EC11A102400388EE1B0586E9537
S113E1B0F91EE860E6AAE5A2E602EA35E6E2E1ED48
S113E1C0E698E6F3E1E2E9F8E1E2E1E2E712E1E20E
S113E1D0E7B8E8D8E71EF2CFE1E2E1E2E1E2E1E20A
S113E1E0E1E28EE44ABDE1159D0C7EE1828EE1FE02
S113E1F0E6801027000517FE7F20F57EE1820D0AD8
S113E200436F6D6D616E6473206C6973740D0A2DB8
S113E2102D2D2D2D2D2D2D2D2D2D2D2D0D0A417313
S113E2206D202020207B41616464727D0D0A556E4F
S113E23061736D20207B55206F7220556164647278
S113E240206F722055616464722C6C656E6774680B
S113E2507D0D0A44756D702020207B44206F722050
S113E260443C616464723E206F7220443C61646487
S113E270723E2C3C6C656E6774683E7D0D0A456E7B
S113E28074657220207B45206F7220453C61646474
S113E290723E206F7220453C616464723E203C6291
S113E2A0797465733E206F7220453C616464723EEC
S113E2B0737472696E677D0D0A427265616B20200A
S113E2C07B42206F7220423C616464723E2E204285
S113E2D020646973706C6179732C20423C616464BE
S113E2E0723E2073657473206F7220636C65617273
S113E2F07320627265616B706F696E747D0D0A467E
S113E300696E642020207B466164647220627974A3
S113E3106573206F7220466164647222617363695D
S113E32069227D0D0A476F20202020207B47206F23
S113E3307220473C616464723E7D0D0A43616C63E4
S113E3402020207B436865786E756D7B2B7C2D685F
S113E35065786E756D7D7D0D0A496E7020202020D4
S113E3607B49616464727D0D0A4A756D70202020BA
S113E3707B4A3C616464723E7D0D0A4D6F76652074
S113E38020207B4D3C61646472313E2C3C616464AA
S113E39072323E2C3C6C656E6768743E7D0D0A508B
S113E3A0726F672020207B507D0D0A5265677320B1
S113E3B020207B52206F7220523C6C65747465720D
S113E3C03E3C6865783E7D0D0A53726563202020CB
S113E3D07B534F3C616464723E206F722053533C04
S113E3E0616464723E2C3C6C656E3E206F722053F7
S113E3F0313C62797465733E206F722053393C62FC
S113E400797465733E7D0D0A547261636520207BC7
S113E410547D0D0A4469736B2020207B4B7D0D0ACB
S113E42048656C702020207B487D0D0A001C5765D0
S113E4306C636F6D6520746F204255474759207691
S113E440657273696F6E20312E300F556E6B6E6F6F
S113E450776E20636F6D6D616E640E427265616BE1
S113E460706F696E742073657412427265616B70AB
S113E4706F696E7420636C656172656410427265C5
S113E480616B706F696E74732066756C6C11457284
S113E490726F7220696E2053207265636F72640A12
S113E4A05339303330303030464310496E76616C26
S113E4B06964206D6E656D6F6E6963104578707266
S113E4C0657373696F6E206572726F72154164644F
S113E4D072657373696E67206D6F6465206572720F
S113E4E06F720F4272616E636820746F6F206C6F7D
S113E4F06E678B90198940191F899D033934024432
S113E5004444448DED3502840F20E734048DEE3508
S113E510028DEA39E680C12027FA39C0301025007F
S113E52019C10910230010C4DFC007C1091023005A
S113E53009C10F102200031CFB391A0439DC153001
S113E5401F0D17390F150F160F178DC8BDE51B27A3
S113E550EC3404DC155849584958495849EBE0DD76
S113E560150C17E68020E5FD019F8DD810270014B7
S113E570FD019D8D9FC12C102600098DC710270019
S113E58003FD019F398D8D8D92102700141F98E68D
S113E590808D881027000A48484848D7159B151CC9
S113E5A0FB398E0101CC0040BDE56710BE019D869C
S113E5B01097161F20BDE50BC6209D03A6A0BDE441
S113E5C0FDC6209616810910260002C62D9D030A59
S113E5D01626E931308610E6A0C12010240002C6B8
S113E5E02EC17F10250002C62E9D034A26E99D0CEC
S113E5F0FC019F830010FD019F22B410BF019D7E8A
S113E600E1828E0101BDE54410270003FD019D1741
S113E61000421026FB6CC6459D03FC019DBDE50B25
S113E620C6209D03A69F019DBDE4FDC6209D038ECB
S113E6300100C6809D065D1027000E3A6F848E018E
S113E6400017001026D07EE182FC019DC30001FD6D
S113E650019D20C2BDE5145D10270039C12E10278D
S113E6600033C12210270011301F10BE019DBDE5EB
S113E6708510270019A7A020F510BE019DA6804D86
S113E6801027000A812210270004A7A020EF10BF42
S113E690019D1CFB391A04398E0101BDE5441F019B
S113E6A0A684BDE4FD9D0C7EE1828E0101BDE5449E
S113E6B0DD19BDE514C12B10260009BDE544D319AD
S113E6C0DD1920EEC12D1026000EBDE5445343C3D1
S113E6D00001D319DD1920DADC19BDE50B9D0C7E90
S113E6E0E1828E0101BDE54410270002ED6ABDE818
S113E6F04035FF8E0101EC6AFD019BBDE544ED6AE6
S113E7001F41327E1F43C60CBDE04FCCE167ED6C68
S113E71020DC10AE6ABDEFBD10BF01B920D0BDE74B
S113E72027BDE7717EE1821A50ECE1FD019BCCE745
S113E73045FD0187138E1159301F26FC1212121049
S113E74021000235FF3501347FCCE11EFD01876EC7
S113E7509F019B9D03C63D9D03BDE4FDC6209D0313
S113E760399D03C63D9D031F20BDE50BC6209D03B7
S113E77039C65810AE668DE9C65910AE688DE2C62A
S113E7805510AE6A8DDBC6531F42312E8DD3C64160
S113E790A6638DBFC642A6648DB9C644A6658DB373
S113E7A0C643A6628DAD9D0CC65010AE6C8DB2BD35
S113E7B0EFBDBDF0B09D0C398E0101BDE5145D10B7
S113E7C02600058DAC7EE182108EE81A4FC4DF6D01
S113E7D0A41027FA0DE1A0102700034C20F1340205
S113E7E0BDE5443406A662810410240009E66132C2
S113E7F063E7E67EE18281081024000C3510326163
S113E800488004AFE67EE1823540326133541F41D3
S113E8101F34C60CBDE04F7EE18243414244585947
S113E820555053208E01A18609EE81E680118300A4
S113E8300010270002E7C44A26EFCE0000EF1D397E
S113E8408E01B98609EE841027000FE6C4E7021191
S113E850A36C10270004C63FE7C4301D4A26E639DE
S113E860860897188E0101BDE544102700418E01EA
S113E870A1CE00001F3210A3841027002411A3840A
S113E880102600021F1230030A1826EA108C00001A
S113E89010270016EDA48EE45ABDE1159D0C7EE10F
S113E8A0824F5FED848EE46920EF8EE47C20EA8E53
S113E8B001A1EC8410270007BDE50BC6209D0330A1
S113E8C0030A1826ED9D0C7EE182BDE58510270024
S113E8D0891F89DB18D718398E0101E680C4DFC18E
S113E8E04F10270080C15310270088E61F0F19C15D
S113E8F03110270008C1391026005F0C190F188D3C
S113E900C98002971A8DC334028DBF35041E89FE57
S113E91001BC10270011FE01BE1026000A3406B304
S113E92001BCFD01BE3506B301BE1F028D9C0A1A4F
S113E93010270004A7A020F40C181026001C0D19A1
S113E9401027F83E108C00001027000310AF6A4F08
S113E9505FFD01BCFD01BE7EE1828EE48DBDE1154B
S113E9609D0C7EE182BDE544FD01BC4F5FFD01BE0F
S113E9707EE182CC0100BDE567FC01BC10270009E3
S113E980FC019DB301BCFD01BEFC019F1027004F9B
S113E9901083001010250002C610D71550FE019FE9
S113E9A033C5FF019FC6539D03C6319D030F16D681
S113E9B015CB03170034FC019D1F02B301BE1E8951
S113E9C01700271E89170022E6A017001D0A152626
S113E9D0F710BF019DD6165317000F9D0C20AA8E69
S113E9E0E49FBDE1159D0C7EE18234021F98DB1685
S113E9F0D716BDE4FD3502398E0101BDE54410276B
S113EA00F7E0DD19BDE514C12C1026F7D5BDE544AA
S113EA101027F7CE1F03BDE514C12C1026F7C3BD84
S113EA20E5441027F7BC1F029E19A680A7C0313FFA
S113EA3026F87EE1828E0101BDE5441F02BDE51486
S113EA40C12210260015CE01004FE68010270023B6
S113EA50C1221027001DE7C04C20EFCE0100301F5B
S113EA604F3402BDE5851F89350210270005E7C034
S113EA704C20EE4D1027F70A0F19971A1F21961AEA
S113EA808CE1001024000930868CE0001024F6F29A
S113EA901F21CE0100E680E1C0102600144A26F5AD
S113EAA01F20BDE50B9D0C0C19961981101027F63B
S113EAB0D1312120C7414258202000003A4144432B
S113EAC0412007008941444342200700C94144448E
S113EAD0412007008B41444442200700CB41444479
S113EAE044200800C3414E444120070084414E4461
S113EAF042200700C4414E44434302001C41534C8E
S113EB0020200A000841534C412000004841534C46
S113EB10422000005841535220200A00074153521A
S113EB2041200000474153524220000057424343D2
S113EB302020040024424353202004002542455150
S113EB402020040027424745202004002C4247543B
S113EB50202004002E424849202004002242485329
S113EB60202004002442495441200700854249548E
S113EB7042200700C5424C45202004002F424C4F40
S113EB802020040025424C532020040023424C54EE
S113EB90202004002D424D49202004002B424E45E4
S113EBA0202004002642504C202004002A425241D6
S113EBB0202004002042524E2020040021425352BF
S113EBC0202004008D42564320200400284256533E
S113EBD02020040029434C5220200A000F434C52A9
S113EBE0412000004F434C52422000005F434D50EF
S113EBF04120070081434D5042200700C1434D503E
S113EC004420091083434D50532009118C434D5027
S113EC105520091183434D50582008008C434D5012
S113EC20592009108C434F4D20200A0003434F4DB7
S113EC304120000043434F4D4220000053435741BD
S113EC40492002003C44414120200000194445432E
S113EC5020200A000A444543412000004A44454319
S113EC60422000005A454F524120070088454F5228
S113EC7042200700C845515520200D000045584743
S113EC8020200B001E46434220200D000146434332
S113EC9020200D000246444220200D0003494E432B
S113ECA020200A000C494E43412000004C494E43A9
S113ECB0422000005C4A4D5020200A000E4A535264
S113ECC0202008008D4C424343200510244C42432D
S113ECD053200510254C424551200510274C42472E
S113ECE0452005102C4C4247542005102E4C424818
S113ECF049200510224C424853200510244C424C14
S113ED00452005102F4C424C4F200510254C424CF9
S113ED1053200510234C424C542005102D4C424DD9
S113ED20492005102B4C424E45200510264C4250DC
S113ED304C2005102A4C425241200600164C4252E7
S113ED404E200510214C425352200600174C4256C7
S113ED5043200510284C425653200510294C4441A9
S113ED6020200700864C444220200700C64C44441F
S113ED7020200800CC4C445320200910CE4C44558C
S113ED8020200800CE4C4458202008008E4C4459C2
S113ED90202009108E4C454153200300324C45413C
S113EDA055200300334C454158200300304C454165
S113EDB059200300314C534C20200A00084C534C7A
S113EDC041200000484C534C42200000584C535200
S113EDD020200A00044C535241200000444C53525A
S113EDE042200000544D554C202000003D4E454724
S113EDF020200A00004E454741200000404E454770
S113EE0042200000504E4F5020200000124F52412B
S113EE10202007008A4F524220200700CA4F524345
S113EE20432002001A4F524720200D00045053483B
S113EE3053200C003450534855200C003650554C88
S113EE4053200C003550554C55200C0037524D4280
S113EE5020200D0005524F4C20200A0009524F4C2F
S113EE604120000049524F4C4220000059524F5259
S113EE7020200A0006524F524120000046524F52B1
S113EE804220000056525449202000003B52545363
S113EE90202000003953424341200700825342435B
S113EEA042200700C253455420200D000653455408
S113EEB044500D0007534558202000001D53544171
S113EEC0202007008753544220200700C75354448E
S113EED020200800CD53545320200910CF535455FB
S113EEE020200800CF535458202008008F53545931
S113EEF0202009108F53554241200700805355426A
S113EF0042200700C0535542442008008353574908
S113EF10202000003F535749322001103F535749E6
S113EF20332001113F53594E4320000013544652DD
S113EF3020200B001F54535420200A000D54535416
S113EF40412000004D545354422000005D582020BD
S113EF500110592020022055202003405320200472
S113EF60405043200580412020080242202009040B
S113EF7044202000064343200A014343520A01442B
S113EF8050200B084450520B083F20205859555329
S113EF90000000000000A09000F0E0D000F0E0D0FD
S113EFA00300000000000504010305040103050437
S113EFB0000001050607070102020008097F01CDD0
S113EFC07F01D1A6A0811010270006811110260010
S113EFD005B701CDA6A0B701CF444444448EEFA0A9
S113EFE0E686F701D18EEF90A686BB01CFB701CE9E
S113EFF0CEEAB58E0093C60DE1451027000AFC0148
S113F000CD10A346102700243348301F26E8CEEC49
S113F010858603B701D1B601CF7D01CD1027000845
S113F020B601CD7F01CD313FB701D3391183EBBD9B
S113F0301026000C868DB101CF10270003CEECBD45
S113F040B601D184FE1026000AA6458EEFB0A6862E
S113F050B701D1B601D1488EF05C6E96F096F0906F
S113F060F097F090F097F0A1F090F097F09BF09B60
S113F070F096F096F096F096F096F096F096F0965C
S113F080F090F097F096F096F090F097F096F09755
S113F090E6A01DFD01D239ECA120F8E6A0F701D0CD
S113F0A039E6A02AF8F701D0C40F588EF0706E9597
S113F0B01F31C6059D09C6209D03B601D1488EF0B7
S113F0C0C36E96F096F0D7F0DDF0E9F0E0F1B7F01A
S113F0D0F2F101F16FF11917002F16000C17002936
S113F0E017002AFC01D27EE50B170021B601D37E5E
S113F0F0E4FD170018F601D31D109F15D3157EE506
S113F1000B170009FC01D220F0C6230E03C6240EFF
S113F11003C62C0E03C6200E03C60C8EEF4D0F152E
S113F120B601D0A404102700408CEF571026000D20
S113F1309716B601CF84021026002E96168CEF5C2B
S113F1401026000D9716B601CF84021027001A96D8
S113F1501643B401D0B701D034040D1510270002B2
S113F1608DAF17002F0C15350430055A26B239B669
S113F17001D0444444441700078D96B601D0840F4F
S113F180C60C8EEF4DA1031027000530055A26F555
S113F1901700013986031F13E6C0C120102700059C
S113F1A09D034A26F339B601D044444444448403BD
S113F1B08EEF8CE6860E030F15B601D0102B0028B7
S113F1C0841F851010260006BDF2BD16000AC62D48
S113F1D09D038AF040BDF2BDBDF1118DC90D15101E
S113F1E0270004C65D9D0339851010270006C65B01
S113F1F09D030C15B601D0840F488EF29D6E968641
S113F200021600028601BDF111C62D9D034A26F99E
S113F21020C9860216000286019716BDF111BDF1C0
S113F220A69616C62B9D034A26F97EF1DDC6419D9E
S113F230037EF1D8C6429D037EF1D8C6449D037E69
S113F240F1D8C63F9D037EF1DDB601D3102B000932
S113F250BDF10DBDE4FD7EF1D8C62D9D034020F027
S113F260BDF10DFC01D2BDE50B7EF1D8BDF10DF66B
S113F27001D31D109F17D317BDE50B8EF299C60459
S113F2809D097EF1DDBDF10DFC01D220E6BDF10D3D
S113F290FC01D2BDE50B7EF1DD2C504352F217F296
S113F2A012F204F1FFF1D8F234F22DF242F249F2F3
S113F2B060F242F23BF26CF285F242F28D810A1066
S113F2C0250006800AC6319D038B301F890E031763
S113F2D000037EE1828E0101CC0014BDE567FC01D0
S113F2E09DF3019FFD019F10BE019D1F20BDE50BF5
S113F2F0BDF1153420BDEFBD3510109F150F17A6B5
S113F30080BDE4FD0C170C179C1526F3C6209D0345
S113F3100C17860B911726F426E5BDF0B00D1E10D0
S113F3202600029D0C10BC019F23C010BF019D3913
S113F330E684C12D102600035F3001340417001544
S113F3401027000E6DE0102600074353C300011C74
S113F350FB39350439E680C1241027F1E7C12710B1
S113F360260010E680A68481271026000230014F73
S113F3701CFB39C13010250035C1391022002F0F74
S113F380150F16C0301025001EC10A1024001834B1
S113F39004DC155849340658495849E3E1EBE0893F
S113F3A000DD15E68020DCDC15301F1CFB391A0457
S113F3B0398605CE01D4E6801027001BC120102712
S113F3C00015C4DFC14110250006C15A10230002F4
S113F3D0E61FE7C04A26DF4D10270007C620E7C016
S113F3E04A26FB9F190F1586939716D616C1FF1050
S113F3F027003FD115102500394FDB1589004456ED
S113F400D717584958495849CEEAB533CB1F3286E5
S113F410058E01D4E680E1A0102600064A26F57E7A
S113F420F438D617102400055AD71620BE5CD71519
S113F43020B98EE4AA7E01957F01DA10BE019DA653
S113F44045488EF44CAD9610BF019D39F46EF472AC
S113F450F476F48BF4B1F4C4F4D7F4DEF4EFF500ED
S113F460F513F539F5620198E7A039EDA139E647BE
S113F47020F6EC4620F5E6478DEEBDF624F601D1E4
S113F480C1011026044AF601D320DDE6478DD9BD1B
S113F490F624B601D1810110270435810310240319
S113F4A06EBDF800868FB701D08602B701D97EF809
S113F4B00FE6478DB3BDF61C301FBD019210270423
S113F4C0097EF884EC468DA3BDF61C301FBD019265
S113F4D0102703F67EF8ACE647BDF46820EA8601FF
S113F4E0B701D9BDF624BDF5FEBDF4687EF80F86DC
S113F4F002B701D9BDF624BDF5FEBDF4687EF80F50
S113F5008602B701D9BDF624BDF5FEA646BDF46B4F
S113F5107EF80FBDF624E647B601D181011027031A
S113F520AF81031024000AB601D94A10270004CB86
S113F53010CB60BDF4687EF80FBDF61C301FE647A3
S113F540BDF468BDF8E2E6C458585858F701D0E64F
S113F55080C12C10260379BDF8E2E6C4FA01D07EFE
S113F560F468BDF61C301FE647BDF4687F01D0BDCA
S113F570F8E2E641FA01D0F701D0E680C12C27EF8A
S113F580301FF601D07EF468E647588EF5906E95EC
S113F590F5B5F5A0F5B6F5CAF5E0F5EFF5B5F5B5B1
S113F5A0BDF61C301FBD01921027031EBDF468E692
S113F5B080C12C27F039BDF61C1F98E68027F6344D
S113F5C002E1E027F0BDF46820F1BDF61C301FBD58
S113F5D00192102702F4BDF46BE680C12C27F039A8
S113F5E0BDF61C301FBD0192102702DE1F0239BD7B
S113F5F0F61C301FBD0192102702CF31AB39E6470C
S113F600B601D181021027000A81031024000139B8
S113F610CB2039CB10B601D94A26F5399E197F0182
S113F620D17EE5148DF6C15B102600078605B7016F
S113F630D1E680C1231027009AC12C102700ADC445
S113F640DF8686C141102700108685C1421027003D
S113F65008868BC14410260019E680C12C102600B0
S113F6600FB701D07F01D9BDF800BDF7E0160049FE
S113F670301F301FBD01921027024FFD01D27D01C2
S113F680DA1026000CB301DB4D102600044C1600E2
S113F690028602B701D9B601D181051026000D8674
S113F6A002B701D9868FB701D01600058602B701CB
S113F6B0D1E680C12C10270091B601D18105102517
S113F6C00010B601D08A10B701D0E680C15D1027C2
S113F6D001FE39BD0192102701F0FD01D2B601D11E
S113F6E08105102701EA8601B701D139BDF8007FF1
S113F6F001D94FE680C12D102600034C20F5301FA0
S113F7008102102201CA4D102600347F01D0BDF7BA
S113F710E04FE680C12B102600034C20F5301F81FA
S113F72002102201AB4D1026000A8684BA01D0B71C
S113F73001D020858B7FBA01D0B701D016FF7A8B18
S113F74081B701D0BDF7E016FF6F7F01D0BDF8008F
S113F750E680C4DFC15010270064301F7F01D91731
S113F760007EFC01D27D01DA102600421083FFF0F6
S113F770102D001C1083000F102E0014B601D1812F
S113F780051027001BC41FFA01D0F701D016FF296A
S113F7901083FF80102D00161083007F102E000EA2
S113F7A07C01D9C688FA01D0F701D016FF0B860276
S113F7B0B701D9C689FA01D0F701D016FEFBE6805D
S113F7C0C4DFC14310250008C1521022000220EEFC
S113F7D0301FC68CFA01D0F701D07C01D116FED9B6
S113F7E0E680C4DF34108EEF8C4FE18010270007D1
S113F7F08B202AF67EF8D0BA01D0B701D035103963
S113F800B601D18103102400058603B701D139B6AE
S113F81001D181031025000FF601D0BDF468B601B3
S113F820D1840110270017B601D94D27E14A1027CA
S113F8300006FC01D27EF46BF601D37EF46810BF9F
S113F840019DFC01D2B3019D8300017D01DA1026E4
S113F85000181083FF80102D00101083FF81102EDC
S113F86000088601B701D97EF468830001313F7C2A
S113F87001D03406F601D0BDF4688602B701D9354B
S113F880067EF46B10BF019DB3019D8300011083BC
S113F890FF80102D002E1083007F102E0026BDF453
S113F8A0688604B701D18601B701D93910BF019D1B
S113F8B0B3019D830002BDF46B8604B701D18602B7
S113F8C0B701D9398EE4E27E01958EE4BB7E0195C1
S113F8D08EE4CC7E0195BDE1159D0C10FE01C97E20
S113F8E0E182C60C3424CEEF4D1F128603E6C4C158
S113F8F02010260008E6A4C141102D001AE6A0C479
S113F900DFE1C0102600074A26E34C1600094C33F9
S113F910C66AE426D420B933C61F213524398E01A2
S113F92001BDE544FD019D0C1E108E000010BF01B9
S113F9309FFC019D3406BDF2DEFC019DFD01CB352B
S113F94006FD019DC6099D038E0100C6809D065DCE
S113F950102700133A6F848E0100A684812E10278D
S113F960000DBDF3B120C2FC01CBFD019D20BA0FF7
S107F9701E7EE18290
S113FFC07EE4FD7EE50B7EE5857EE5447EF3557E8D
S105FFD0F3B187
S111FFF20180018301860189018C018FE000EA
S503019B60
S9030000FC
